:020000040800F2
:1000000000000220F51100084317000845170008FA
:1000100047170008491700084B17000800000000A8
:100020000000000000000000000000004D17000864
:100030004F17000800000000511700085317000870
:100040004512000845120008451200084512000834
:100050004512000845120008451200084512000824
:100060004512000845120008451200084512000814
:100070004512000845120008451200084512000804
:100080004512000845120008451200080000000053
:100090000000000000000000000000004512000801
:1000A00045120008451200084512000845120008D4
:1000B00045120008451200084512000845120008C4
:1000C00045120008451200084512000845120008B4
:1000D0004512000859330008DD3300080000000015
:1000E00045120008451200084512000800000000F3
:1000F00000000000000000000000000045120008A1
:1001000000000000451200084512000845120008D2
:1001100000000000000000000000000000000000DF
:100120004512000845120008451200084512000853
:100130004512000800000000000000000000000060
:100140000000000000000000000000004512000850
:100150004512000845120008451200084512000823
:1001600045120008451200080000000000000000D1
:10017000000000000000000000000000000000007F
:100180000000000045120008000000000000000010
:080190004512000845120008A9
:1001980010B5054C237833B9044B13B10448AFF3B9
:1001A80000800123237010BD3002002000000000F1
:1001B8008C61000808B5034B1BB103490348AFF332
:1001C800008008BD00000000340200208C61000897
:1001D80010F8012B11F8013B012A28BF9A42F7D0E9
:1001E800D01A7047034613F8012B002AFBD1181ABE
:1001F800013870474FF0FF0C1CEAD0521EBF1CEAB2
:10020800D15392EA0C0F93EA0C0F6FD01A4480EA8C
:10021800010C400218BF5FEA41211ED04FF0006375
:1002280043EA501043EA5111A0FB01310CF00040A1
:10023800B1F5000F3EBF490041EAD3715B0040EAC7
:10024800010062F17F02FD2A1DD8B3F1004F40EB97
:10025800C25008BF20F00100704790F0000F0CF06A
:10026800004C08BF49024CEA502040EA51207F3A2E
:10027800C2BFD2F1FF0340EAC250704740F4000009
:100288004FF00003013A5DDC12F1190FDCBF00F0FA
:1002980000407047C2F10002410021FA02F1C2F1A8
:1002A800200200FA02FC5FEA310040F1000053EA44
:1002B8004C0308BF20EADC70704792F0000F00F092
:1002C800004C02BF400010F4000F013AF9D040EA98
:1002D8000C0093F0000F01F0004C02BF490011F42C
:1002E800000F013BF9D041EA0C018FE70CEAD1532A
:1002F80092EA0C0F18BF93EA0C0F0AD030F0004CAA
:1003080018BF31F0004CD8D180EA010000F000405D
:10031800704790F0000F17BF90F0004F084691F01B
:10032800000F91F0004F14D092EA0C0F01D1420255
:100338000FD193EA0C0F03D14B0218BF084608D11E
:1003480080EA010000F0004040F0FE4040F4000068
:10035800704740F0FE4040F44000704781F0004193
:1003680002E000BF83F0004330B54FEA41044FEA92
:10037800430594EA050F08BF90EA020F1FBF54EA2D
:10038800000C55EA020C7FEA645C7FEA655C00F0C9
:10039800E2804FEA5454D4EB5555B8BF6D420CDD9A
:1003A8002C4480EA020281EA030382EA000083EA1D
:1003B800010180EA020281EA0303362D88BF30BDBD
:1003C80011F0004F4FEA01314FF4801C4CEA113113
:1003D80002D0404261EB410113F0004F4FEA033372
:1003E8004CEA133302D0524263EB430394EA050FFD
:1003F80000F0A780A4F10104D5F1200E0DDB02FA6C
:100408000EFC22FA05F2801841F1000103FA0EF2FF
:10041800801843FA05F359410EE0A5F120050EF1C5
:10042800200E012A03FA0EFC28BF4CF0020C43FAF6
:1004380005F3C01851EBE37101F0004507D54FF003
:10044800000EDCF1000C7EEB00006EEB0101B1F553
:10045800801F1BD3B1F5001F0CD349085FEA300099
:100468004FEA3C0C04F101044FEA445212F5800FA4
:1004780080F09A80BCF1004F08BF5FEA500C50F141
:10048800000041EB045141EA050130BD5FEA4C0C24
:10049800404141EB0101013C28BFB1F5801FE9D281
:1004A80091F0000F04BF01460020B1FA81F308BFA4
:1004B8002033A3F10B03B3F120020CDA0C3208DD70
:1004C80002F1140CC2F10C0201FA0CF021FA02F14B
:1004D8000CE002F11402D8BFC2F1200C01FA02F1BB
:1004E80020FA0CFCDCBF41EA0C019040E41AA2BFE0
:1004F80001EB0451294330BD6FEA04041F3C1CDAA8
:100508000C340EDC04F11404C4F1200220FA04F0C7
:1005180001FA02F340EA030021FA04F345EA030171
:1005280030BDC4F10C04C4F1200220FA02F001FA33
:1005380004F340EA0300294630BD21FA04F02946B5
:1005480030BD94F0000F83F4801306BF81F480114E
:100558000134013D4EE77FEA645C18BF7FEA655CC1
:1005680029D094EA050F08BF90EA020F05D054EA93
:10057800000C04BF1946104630BD91EA030F1EBF98
:100588000021002030BD5FEA545C05D1400049419C
:1005980028BF41F0004130BD14F580043CBF01F58F
:1005A800801130BD01F0004545F0FE4141F4700175
:1005B8004FF0000030BD7FEA645C1ABF1946104650
:1005C8007FEA655C1CBF0B46024650EA013406BF51
:1005D80052EA033591EA030F41F4002130BD00BF10
:1005E80090F0000F04BF0021704730B54FF48064CD
:1005F80004F132044FF000054FF0000150E700BF4E
:1006080090F0000F04BF0021704730B54FF48064AC
:1006180004F1320410F0004548BF40424FF0000199
:100628003EE700BF42004FEAE2014FEA31014FEADC
:1006380002701FBF12F07F4393F07F4F81F060512B
:10064800704732F07F4208BF704793F07F4F04BF76
:1006580041F40021704730B54FF4607401F0004553
:1006680021F000411CE700BF50EA010208BF7047B3
:1006780030B54FF000050AE050EA010208BF7047A4
:1006880030B511F0004502D5404261EB41014FF40D
:10069800806404F132045FEA915C3FF4D8AE4FF015
:1006A80003025FEADC0C18BF03325FEADC0C18BFF8
:1006B800033202EBDC02C2F1200300FA03FC20FA49
:1006C80002F001FA03FE40EA0E0021FA02F1144496
:1006D800BDE600BF70B54FF0FF0C4CF4E06C1CEAAF
:1006E80011541DBF1CEA135594EA0C0F95EA0C0F20
:1006F80000F0DEF82C4481EA030621EA4C5123EA93
:100708004C5350EA013518BF52EA033541F48011C1
:1007180043F4801338D0A0FB02CE4FF00005E1FB74
:1007280002E506F00042E0FB03E54FF00006E1FBBE
:1007380003569CF0000F18BF4EF0010EA4F1FF0401
:10074800B6F5007F64F5407404D25FEA4E0E6D4141
:1007580046EB060642EAC62141EA55514FEAC52052
:1007680040EA5E504FEACE2EB4F1FD0C88BFBCF5CE
:10077800E06F1ED8BEF1004F08BF5FEA500E50F17F
:10078800000041EB045170BD06F0004646EA010145
:1007980040EA020081EA0301B4EB5C04C2BFD4EB77
:1007A8000C0541EA045170BD41F480114FF0000E70
:1007B800013C00F3AB8014F1360FDEBF002001F0DE
:1007C800004170BDC4F10004203C35DA0C341BDC58
:1007D80004F11404C4F1200500FA05F320FA04F02A
:1007E80001FA05F240EA020001F0004221F000415E
:1007F80010EBD37021FA04F642EB06015EEA430ED1
:1008080008BF20EAD37070BDC4F10C04C4F1200500
:1008180000FA04F320FA05F001FA04F240EA0200B3
:1008280001F0004110EBD37041F100015EEA430E84
:1008380008BF20EAD37070BDC4F1200500FA05F2A4
:100848004EEA020E20FA04F301FA05F243EA020323
:1008580021FA04F001F0004121FA04F220EA020032
:1008680000EBD3705EEA430E08BF20EAD37070BD78
:1008780094F0000F0FD101F00046400041EB010158
:1008880011F4801F08BF013CF7D041EA060195F03A
:10089800000F18BF704703F00046520043EB0303F4
:1008A80013F4801F08BF013DF7D043EA06037047E1
:1008B80094EA0C0F0CEA135518BF95EA0C0F0CD0EC
:1008C80050EA410618BF52EA4306D1D181EA030132
:1008D80001F000414FF0000070BD50EA410606BF2C
:1008E8001046194652EA430619D094EA0C0F02D171
:1008F80050EA013613D195EA0C0F05D152EA0336B6
:100908001CBF104619460AD181EA030101F00041D3
:1009180041F0FE4141F470014FF0000070BD41F01C
:10092800FE4141F4780170BD70B54FF0FF0C4CF4F6
:10093800E06C1CEA11541DBF1CEA135594EA0C0F15
:1009480095EA0C0F00F0A7F8A4EB050481EA030E62
:1009580052EA03354FEA013100F088804FEA033349
:100968004FF0805545EA131343EA12634FEA022217
:1009780045EA111545EA10654FEA00260EF00041D8
:100988009D4208BF964244F1FD0404F5407402D22A
:100998005B084FEA3202B61A65EB03055B084FEABB
:1009A80032024FF480104FF4002CB6EB020E75EBB8
:1009B800030E22BFB61A754640EA0C005B084FEAE0
:1009C8003202B6EB020E75EB030E22BFB61A75465D
:1009D80040EA5C005B084FEA3202B6EB020E75EBA8
:1009E800030E22BFB61A754640EA9C005B084FEA20
:1009F8003202B6EB020E75EB030E22BFB61A75462D
:100A080040EADC0055EA060E18D04FEA051545EA1B
:100A180016754FEA06164FEAC30343EA52734FEAC4
:100A2800C2025FEA1C1CC0D111F4801F0BD141EA3D
:100A380000014FF000004FF0004CB6E711F4801FA2
:100A480004BF01430020B4F1FD0C88BFBCF5E06F82
:100A58003FF6AFAEB5EB030C04BFB6EB020C5FEA92
:100A6800500C50F1000041EB045170BD0EF0004EE7
:100A78004EEA113114EB5C04C2BFD4EB0C0541EA19
:100A8800045170BD41F480114FF0000E013C90E616
:100A980045EA060E8DE60CEA135594EA0C0F08BFDA
:100AA80095EA0C0F3FF43BAF94EA0C0F0AD150EAD9
:100AB80001347FF434AF95EA0C0F7FF425AF10466C
:100AC80019462CE795EA0C0F06D152EA03353FF494
:100AD800FDAE1046194622E750EA410618BF52EA11
:100AE80043067FF4C5AE50EA41047FF40DAF52EAE5
:100AF80043057FF4EBAE12E74FF0FF3C06E000BF82
:100B08004FF0010C02E000BF4FF0010C4DF804CD8E
:100B18004FEA410C7FEA6C5C4FEA430C18BF7FEA4E
:100B28006C5C1BD001B050EA410C0CBF52EA430C7C
:100B380091EA030F02BF90EA020F0020704710F1FC
:100B4800000F91EA030F58BF994208BF90422CBF8B
:100B5800D8176FEAE37040F0010070474FEA410C84
:100B68007FEA6C5C02D150EA013C07D14FEA430CA2
:100B78007FEA6C5CD6D152EA033CD3D05DF8040B13
:100B8800704700BF8446104662468C461946634645
:100B980000E000BF01B5FFF7B7FF002848BF10F11C
:100BA800000F01BD4DF808EDFFF7F4FF0CBF012061
:100BB80000205DF808FB00BF4DF808EDFFF7EAFFDD
:100BC80034BF012000205DF808FB00BF4DF808ED98
:100BD800FFF7E0FF94BF012000205DF808FB00BF8D
:100BE8004DF808EDFFF7CEFF94BF012000205DF817
:100BF80008FB00BF4DF808EDFFF7C4FF34BF012024
:100C080000205DF808FB00BF4FEA410C7FEA6C5CEE
:100C180002D150EA013C0AD14FEA430C7FEA6C5CEE
:100C280002D152EA033C02D14FF0000070474FF066
:100C3800010070474FEA410212F5001215D211D592
:100C48006FF47873B3EB625212D94FEAC12343F0C1
:100C5800004343EA505311F0004F23FA02F018BF43
:100C6800404270474FF00000704750EA013005D10C
:100C780011F0004008BF6FF0004070474FF00000CF
:100C8800704700BF80F0004002E000BF81F00041E3
:100C980042001FBF5FEA410392EA030F7FEA226C1A
:100CA8007FEA236C6AD04FEA1262D2EB1363C1BFAA
:100CB800D218414048404140B8BF5B42192B88BF19
:100CC800704710F0004F40F4000020F07F4018BF3C
:100CD800404211F0004F41F4000121F07F4118BF5C
:100CE800494292EA030F3FD0A2F1010241FA03FC04
:100CF80010EB0C00C3F1200301FA03F100F00043EC
:100D080002D5494260EB4000B0F5000F13D3B0F1B3
:100D1800807F06D340084FEA310102F10102FE2A22
:100D280051D2B1F1004F40EBC25008BF20F0010092
:100D380040EA03007047490040EB0000013A28BF31
:100D4800B0F5000FEDD2B0FA80FCACF1080CB2EBB4
:100D58000C0200FA0CF0AABF00EBC2505242184332
:100D6800BCBFD0401843704792F0000F81F40001D7
:100D780006BF80F400000132013BB5E74FEA4103AA
:100D88007FEA226C18BF7FEA236C21D092EA030F16
:100D980004D092F0000F08BF0846704790EA010F90
:100DA8001CBF0020704712F07F4F04D1400028BFBD
:100DB80040F00040704712F100723CBF00F500009F
:100DC800704700F0004343F0FE4040F400007047D5
:100DD8007FEA226216BF08467FEA23630146420281
:100DE80006BF5FEA412390EA010F40F48000704794
:100DF8004FF0000304E000BF10F0004348BF40423A
:100E08005FEA000C08BF704743F0964301464FF075
:100E180000001CE050EA010208BF70474FF00003D1
:100E28000AE000BF50EA010208BF704711F0004312
:100E380002D5404261EB41015FEA010C02BF8446E2
:100E48000146002043F0B64308BFA3F18053A3F541
:100E58000003BCFA8CF2083AA3EBC25310DB01FA88
:100E680002FC634400FA02FCC2F12002BCF1004F0C
:100E780020FA02F243EB020008BF20F0010070479D
:100E880002F1200201FA02FCC2F1200250EA4C00F1
:100E980021FA02F243EB020008BF20EADC70704737
:100EA80042000ED2B2F1FE4F0BD34FF09E03B3EBCC
:100EB800126209D44FEA002343F0004323FA02F0F8
:100EC80070474FF00000704712F1610F01D14202E4
:100ED80002D14FF0FF3070474FF00000704700BF5D
:100EE80053B94AB9002908BF00281CBF4FF0FF3189
:100EF8004FF0FF3000F076B9ADF1080C6DE904CE83
:100F080000F006F8DDF804E0DDE9022304B07047DC
:100F18002DE9F047089E0D4604468846002B4DD122
:100F28008A42944668D9B2FA82F252B101FA02F3BF
:100F3800C2F1200120FA01F10CFA02FC41EA03088F
:100F480094404FEA1C41B8FBF1F71FFA8CFE01FBF5
:100F5800178807FB0EF0230C43EA084398420AD986
:100F68001CEB030307F1FF3580F01E81984240F225
:100F78001B81023F63441B1AB3FBF1F001FB1033E2
:100F880000FB0EFEA4B244EA0344A6450AD91CEBB2
:100F9800040400F1FF3380F00981A64540F2068180
:100FA800644402380021A4EB0E0440EA07401EB155
:100FB8000023D440C6E90043BDE8F0878B4208D936
:100FC800002E00F0EE800021C6E900050846BDE8C5
:100FD800F087B3FA83F100294AD1AB4202D38242A7
:100FE80000F2FC80841A65EB030301209846002E6A
:100FF800E2D0C6E90048DFE702B9FFDEB2FA82F2C2
:10100800002A40F09180A1EB0C0001214FEA1C4717
:101018001FFA8CFEB0FBF7F307FB1300250C45EA1B
:1010280000450EFB03F0A84208D91CEB050503F1A7
:10103800FF3802D2A84200F2CE8043462D1AB5FBF3
:10104800F7F007FB10550EFB00FEA4B244EA054476
:10105800A64508D91CEB040400F1FF3502D2A645C9
:1010680000F2B6802846A4EB0E0440EA03409EE74F
:10107800C1F120078B4022FA07FC4CEA030C25FA41
:1010880007FA4FEA1C49BAFBF9F820FA07F309FBFB
:1010980018AA8D401FFA8CFE1D4300FA01F308FBC5
:1010A8000EF02C0C44EA0A44A04202FA01F20BD9D1
:1010B8001CEB040408F1FF3A80F08880A04240F25B
:1010C8008580A8F102086444241AB4FBF9F009FBEE
:1010D800104400FB0EFEADB245EA0444A64508D90B
:1010E8001CEB040400F1FF356CD2A6456AD902381E
:1010F800644440EA0840A0FB0295A4EB0E04AC420D
:10110800C846AE4656D353D0002E69D0B3EB08027A
:1011180064EB0E0422FA01F304FA07F71F43CC40EC
:10112800C6E90074002147E70CFA02FCC2F120016D
:1011380025FA01F34FEA1C4720FA01F195400D43C7
:10114800B3FBF7F107FB11331FFA8CFE280C40EABA
:10115800034001FB0EF3834204FA02F408D91CEBA6
:10116800000001F1FF382FD283422DD902396044A3
:10117800C01AB0FBF7F307FB1300ADB245EA004510
:1011880003FB0EF0A84208D91CEB050503F1FF3854
:1011980016D2A84214D9023B6544281A43EA0141F1
:1011A80038E73146304607E72F46E4E61846F9E6C1
:1011B8004B45A9D2B9EB020865EB0C0E0138A3E741
:1011C8004346EAE7284694E74146D1E7D0467BE71D
:1011D8006444023847E7023B65442FE7084606E7C0
:1011E8003146E9E6704700BF70470000DFF834D0A9
:1011F800FFF7FAFF0C480D490D4A002302E0D458C6
:10120800C4500433C4188C42F9D30A4A0A4C002348
:1012180001E013600432A242FBD302F01BFA00F093
:101228000EF8704700000220000000202C02002069
:101238007C66000830020020141E0020FEE708B576
:1012480000F0CEFC00F012F800F0B6FD00F01EF839
:1012580000F020FEFAE772B6FEE7002303E0FF2263
:10126800C2540133DBB2052BF9D9704710B500F031
:10127800B5F8054C4FF4FA71204601F023FFE01F42
:10128800FFF7EBFF10BD00BF0C04002008B50448B1
:1012980001F029FF00B908BD00F0A0F8FBE700BF86
:1012A8000C04002008B500F02FFA08BD10B504465C
:1012B8000146262000F03DF908B1022010BD204665
:1012C80000F051F90028F9D00220F7E738B50446B4
:1012D8000D466FEA000C0CF0030C84445FFA8CF1A5
:1012E800602000F0AFF908B1022038BD2946204639
:1012F80000F08CF90028F8D00220F6E7C16000233E
:101308006FF07F42934208DA826812F0010F01D130
:101318000133F5E7C068C0B27047704770B50D4635
:101328000A4C636923F0010363614100084E01F030
:10133800FE013068FFF7E2FF29463068FFF7DEFF5D
:10134800636943F00103636170BD00BF000402409C
:101358004C02002038B5410061F07F01094C6369F7
:1013680023F001036361084D01F0FE012868FFF7CF
:10137800C5FF00212868FFF7C1FF636943F0010337
:10138800636138BD000402404C02002038B50446B1
:101398000D46FFF7DFFF40EA0501C9B22046FFF717
:1013A800BDFF38BD38B504460D46FFF7D3FF20EA28
:1013B8000501C9B22046FFF7B1FF38BD08B51420B2
:1013C800FFF7C8FF03211420FFF7E0FF08BD08B5A9
:1013D8000F210120FFF7A2FF08BD000008B5124B3E
:1013E80001229A6103F5806310229A61FFF7EFFFEB
:1013F80080212A20FFF792FFA9212B20FFF78EFFDB
:1014080003212C20FFF78AFFE8212D20FFF786FF14
:1014180040211520FFF782FF3D211120FFF77EFFB5
:10142800FFF7CCFF08BD00BF000402402DE9F047DC
:1014380007468A46154699460C2817D00E2819D112
:1014480010264FF0120848F080010220FFF766FFCF
:1014580080210420FFF7A6FF80210A20FFF796FFCE
:1014680000210120FFF75AFF00240CE030264FF03E
:101478007708E8E70026B046E5E71AF804100920DF
:10148800FFF74CFF0134A542F7D839460120FFF792
:1014980045FF0C2F15D04FF4FA650420FFF75AFFCB
:1014A8000446013D04D010F0010F01D10642F4D0EA
:1014B80080210D20FFF776FF45B902242046BDE8BC
:1014C800F08780210D20FFF761FFE4E70620FFF792
:1014D80041FF10F01B0F2AD108EA040414F001049C
:1014E80000D001240C2FE9D10A20FFF733FF06466C
:1014F8000C20FFF72FFF10F0070009D0731E00EB38
:10150800C300089B18603EB1102E06D9102604E0CF
:10151800F300089A1360F6E701260025AE42CDD9FC
:101528000920FFF717FF09F805000135F6E702243F
:10153800C4E730B585B005460C4607210D20FFF7F6
:10154800EDFE257003AB00932346012221460C20B3
:10155800FFF76CFF20B9039B102B02D0022000E09C
:10156800022005B030BD10B584B0044600210D201E
:10157800FFF7D4FE932323702023637003AB0093FB
:101588002346022221460C20FFF750FF68B104B021
:1015980010BDA15C4B40DBB20132D2B2032AF8D9AC
:1015A800A25C9A42F3D00220F1E703460246F5E72F
:1015B800F8B507460D46164604210520FFF7F2FE4A
:1015C80080210A20FFF7E2FE002405E0395D0920AA
:1015D800FFF7A4FE0134E4B2AC42F7D303210120A3
:1015E800FFF79CFEFF240520FFF7B4FE631E13F0EF
:1015F800FF0402D010F0040FF5D02220FFF7AAFE56
:1016080030702120FFF7A6FE7070F8BD10B584B0C9
:101618000C4630230B7048708A1C02212046FFF7C5
:10162800C7FF03AB00932346042221460C20FFF793
:10163800FDFE20B9039B902B02D0022000E002207F
:1016480004B010BD10B586B08DF808008DF80910EB
:10165800002108E012F801C001F11A00684400F8FE
:1016680010CC0131C9B20529F4D9002207E0985CF1
:1016780002F12001694401F8100C0132D2B2032AA8
:10168800F5D905AB009302AB0C2219460E20FFF7E3
:10169800CDFE044618B10224204606B010BD08202D
:1016A800FFF758FE10F0080FF6D10224F4E700B552
:1016B80087B093238DF8083070238DF80930002304
:1016C80007E0C15C03F11A026A4402F8101C0133F6
:1016D800DBB2042BF5D90DF10F02072102A8FFF7A1
:1016E80067FF05AB009302AB092219460C20FFF7F0
:1016F8009DFE28B9059B182B03D19DF8080000E032
:10170800002007B05DF804FB00B585B050238DF8C4
:10171800083000238DF809300DF10A02022102A8D1
:10172800FFF746FF03AB009302AB042219460C20D7
:10173800FFF77CFE05B05DF804FBFEE7FEE7FEE779
:10174800FEE7FEE770477047704708B500F000FCF9
:1017580008BD000030B484B000230093A448026B95
:1017680042F001020263026B02F001020092009A49
:101778000193026B42F002020263026B02F0020262
:101788000192019A0293026B42F004020263026B17
:1017980002F004020292029A0393036B43F080035F
:1017A8000363036B03F080030393039B036B43F012
:1017B800010303638F4A136823F0C003136013689F
:1017C80043F080031360936823F0C0039360936829
:1017D80043F080039360536823F008035360536811
:1017E8005360D36823F0C003D360D36843F0400349
:1017F800D3604FF400259561036B43F00103036345
:10180800136823F030031360136843F02003136058
:10181800936823F030039360936843F02003936048
:10182800536823F00403536053685360D36823F06C
:101838003003D360D36843F01003D3604FF48023A0
:101848009361136A23F470631362136A43F4E063C9
:101858001362136A23F470431362136A43F4E04378
:101868001362036B43F00203036363490B6823F4B9
:1018780040130B600B6843F400130B608B6823F470
:1018880040138B608B6843F440138B604B6823F4E0
:1018980080634B604B684B60CB6823F44013CB608C
:1018A800CB6843F48013CB604FF080638B61036B8C
:1018B80043F004030363514B1C6824F030041C609C
:1018C8001C6844F020041C609C6824F030049C6070
:1018D8009C6844F030049C605C6824F004045C60FC
:1018E8005C685C60DC6824F03004DC60DC6844F030
:1018F8001004DC6004249C61046B44F00404046359
:101908001C6824F0C0041C601C6844F080041C603F
:101918009C6824F0C0049C609C6844F0C0049C60EF
:101928005C6824F008045C605C685C60DC6824F037
:10193800C004DC60DC6844F04004DC609D614C6AF3
:1019480024F470644C624C6A44F4A0644C621C6ACF
:1019580024F470641C621C6A44F4A0641C621C6A4F
:1019680024F470441C621C6A44F4A0441C62046B96
:1019780044F0040404631C6824F440741C601C686C
:1019880044F480741C609C6824F440749C609C68D7
:101998009C605C6824F010045C605C685C60DC68D7
:1019A80024F44074DC60DC68DC604FF480149C61D3
:1019B800046B44F0020404630C6824F003040C6014
:1019C8000C6844F001040C608C6824F003048C60FB
:1019D8008C688C604C6824F001044C604C684C6046
:1019E800CC6824F00304CC60CC68CC6008E000BF6D
:1019F8000038024000000240000402400008024093
:101A08004FF480348C618C61016B41F001010163FA
:101A1800116821F440611160116841F4806111601E
:101A2800916821F44061916091689160516821F05A
:101A38002001516051685160D16821F44061D16042
:101A4800D168D1604FF400119161026B42F0040239
:101A580002631A6822F040621A601A681A609A686B
:101A680022F040629A609A689A605A6822F400529A
:101A78005A605A685A60DA6822F04062DA60DA68B6
:101A8800DA604FF000529A6104B030BC704700BF72
:101A980010B582B000230193134A116C41F48041C0
:101AA8001164126C02F480420192019A0F4C1822C0
:101AB800E26163612361E360A36023624FF4827291
:101AC80062604FF40072A261A3620A22E26263625A
:101AD800074B2360204601F03EFA2268136843F062
:101AE8004003136002B010BD003802404C020020D1
:101AF8000038004010B5BAB000210D4801F0D8FCFC
:101B08000C4B1860002810DB0A4C6946206801F06D
:101B1800F7FC4FF41651684601F01CFD6A46002197
:101B2800206801F0FDFC3AB010BDFFF794FBEBE72D
:101B3800D06100082C04002000B595B030220021A7
:101B480008A801F0C9FD00230393049305930693A5
:101B580007930193204A116C41F080511164126C73
:101B680002F080520192019A02931C4B1A6842F4C7
:101B780040421A601B6803F440430293029B01230E
:101B880008934FF48033099302230E934FF4800295
:101B98000F92082210924822119212930423139351
:101BA80008A800F043FE88B90F2303930223049387
:101BB800002305934FF4805206920793012103A84E
:101BC80001F094F828B915B05DF804FBFFF743FB62
:101BD800EAE7FFF740FBF6E70038024000700040F4
:101BE80008B500F09BF9FFF7A7FFFFF7B3FDFFF774
:101BF8004FFF01F051FCFFF77DFF08BD00B587B02E
:101C080000230193029303930493059302680E4BF8
:101C18009A4202D007B05DF804FB002300930B4BF7
:101C28001A6B42F001021A631B6B03F00103009365
:101C3800009BC023019302230293059301A9044842
:101C480000F014FDE6E700BF000400400038024041
:101C58000000024030B589B000250095154B1A6C7C
:101C680042F002021A641B6C03F002030093009B0B
:101C7800114C124B236009236360A56041F61F4392
:101C8800E3602561204600F05BFB60230193029529
:101C9800039505952A4601A9204600F0AFFB0422CA
:101CA8000DEB0201204600F0A9FB2046FFF7A6FF36
:101CB80009B030BD00380240A402002000040040F2
:101CC80010B5054C2023A361642001F0A3F94FF45B
:101CD8000013A36110BD00BF0000024010B586B01C
:101CE800154B93E803000490ADF81410134BEC4621
:101CF8000FCB8CE80F001248FFF7D8FA18B102246E
:101D0800204606B010BD0E4C2046FFF7D0FC2346F7
:101D180004AAA4F580710120FFF7D8FA044640B957
:101D280010226946074801F0B9FC0028E8D00224CF
:101D3800E6E70224E4E700BFD8610008A8610008CC
:101D4800F0030020F002002010B50C4B4FF4805235
:101D58009A614FF400529A614FF480429A61084C9C
:101D680023684FF6FF725A6300219963204600F0FA
:101D7800C3FB0421204600F0BFFB10BD0004024055
:101D8800A402002010B50A4B4FF080529A614FF020
:101D980000529A614FF080429A61064C0021204619
:101DA80000F022FC0421204600F01EFC10BD00BFFC
:101DB80000040240A402002008B5344A136B43F023
:101DC80002031363324B196821F0405119601968F6
:101DD80041F080511960996821F0405199609968E3
:101DE8009960596821F48041596059685960D968E7
:101DF80021F04051D960D968D9604FF0804199618C
:101E0800116B41F002011163196821F040611960FA
:101E1800196841F080611960996821F04061996002
:101E280099689960596821F4005159605968596056
:101E3800D96821F04061D960D968D9604FF0005164
:101E48009961116B41F0020111631A6822F0407226
:101E58001A601A6842F080721A609A6822F040721A
:101E68009A609A689A605A6822F480525A605A684E
:101E78005A60DA6822F04072DA60DA68DA604FF0A5
:101E880080529A61FFF7E6FE08BD00BF00380240A5
:101E98000004024008B5FFF721FF30B90A4B1B7850
:101EA80033B1012B0AD0FFF70BFFFFF7FBF908BD91
:101EB800FFF74AFF044B01221A70F4E7FFF762FFAD
:101EC800014B00221A70EEE7EC0200207047000078
:101ED80010B504460E4B18784FF47A73B3FBF0F341
:101EE8000C4A1068B0FBF3F001F020F868B90F2C29
:101EF80001D901200AE0002221464FF0FF3000F00E
:101F0800DDFF054B1C60002000E0012010BD00BF74
:101F180004000020000000200800002008B50B4B3A
:101F28001A6842F400721A601A6842F480621A60F1
:101F38001A6842F480721A60032000F0ADFF0F2087
:101F4800FFF7C6FFFFF7C2FF002008BD003C0240B4
:101F5800034A1168034B1B780B441360704700BF9A
:101F68003004002004000020014B1868704700BFAF
:101F78003004002038B504460268136923F440533E
:101F8800C1680B43136183680269134342691343B1
:101F9800C2691A430168CB6823F4164323F00C0383
:101FA8001343CB600268536923F4407381690B4380
:101FB80053610368314A934206D002F58062934226
:101FC80002D000F049FF01E000F056FFE369B3F5E5
:101FD800004F29D00021031849411B1841F1000185
:101FE800C90041EA5371DB00181863684FEA83029D
:101FF8004FEA937341F10001FEF772FF204DA5FBF4
:1020080000325109642303FB11031B013233A5FB82
:1020180003235B0903F0F00202EB011203F00F0344
:10202800216813448B6038BD0023021843EB030179
:10203800121841F10001C90041EA5271D20010188A
:1020480041F10001626892185B41FEF749FF0C4DAF
:10205800A5FB00325109642303FB1103DB00323373
:10206800A5FB03235B095A0002F4F87202EB011284
:1020780003F00703216813448B60D4E70010014084
:102088001F85EB51704760B310B5044690F8413096
:1020980013B3242384F841302268D36823F400530F
:1020A800D3602046FFF766FF2268136923F4904344
:1020B80013612268536923F02A0353612268D368A5
:1020C80043F40053D36000206064202384F8413037
:1020D80084F84230606310BD80F84030FFF7D2FFCB
:1020E800D7E701207047002831D010B5044690F892
:1020F80041303BB3242384F841302268D36823F469
:102108000053D3602046FFF735FF2268136923F494
:10211800904313612268536923F0220353612268B4
:10212800536943F0080353612268D36843F40053AA
:10213800D36000206064202384F8413084F8423062
:10214800606310BD80F84030FFF79CFFD2E70120A4
:1021580070477047B0B110B50446242380F8413069
:102168000268D36823F40053D360FFF7F2FF00201E
:10217800606484F8410084F842002063606384F856
:10218800400010BD0120704770B4036A026A22F053
:10219800010202624668826922F073020C6844EA0E
:1021A800020523F002028B6813430D4CA04209D0AC
:1021B8000B4CA0420DD0466085614A6842630362B9
:1021C80070BC704723F00803CA68134323F0040364
:1021D800EEE726F440764A6932438E691643EAE709
:1021E8000000014030B4036A026A22F4807202627D
:1021F8004568C26922F073020C68224323F4007315
:102208008C6843EA04230F4CA04209D00D4CA0422D
:102218000ED04560C2614A68C263036230BC704731
:1022280023F40063CC6843EA042323F48063EDE7D6
:1022380025F440554C6945EA04158C6945EA0415AE
:10224800E7E700BF0000014030B4036A026A22F4E5
:10225800805202624468C26922F4E6420D6842EA8A
:10226800052223F400538D6843EA0533074DA8423D
:1022780006D04460C2614A680264036230BC704799
:1022880024F480444D6944EA8514F2E700000140D3
:10229800704700000368294A90420ED0B0F1804F81
:1022A8000BD0A2F57C42904207D002F580629042A2
:1022B80003D002F58062904203D123F070034A688C
:1022C80013431E4A90421AD0B0F1804F17D0A2F59E
:1022D8007C42904213D002F5806290420FD002F502
:1022E800806290420BD002F59A32904207D002F5F4
:1022F8008062904203D002F58062904203D123F4B9
:102308004073CA68134323F080034A691343036088
:102318008B68C3620B688362084B98420AD001231A
:102328004361036913F0010F03D0036923F001032C
:10233800036170470B690363F1E700BF00000140C8
:1023480040B310B5044690F83D30F3B1022384F849
:102358003D30214651F8040BFFF79CFF012384F818
:10236800463084F83E3084F83F3084F8403084F8B2
:10237800413084F8423084F8433084F8443084F89B
:10238800453084F83D30002010BD80F83C30FFF720
:102398007FFFDBE70120704730B4036A026A22F04E
:1023A800100202624468826922F4E6420D6842EA39
:1023B800052223F020038D6843EA05130E4DA84239
:1023C80009D00D4DA8420ED0446082614A688263EC
:1023D800036230BC704723F08003CD6843EA0513DD
:1023E80023F04003EDE724F440644D6944EA850492
:1023F8008D6944EA8504E7E70000014038B590F8A4
:102408003C30012B66D004460D46012380F83C3051
:102418000C2A5AD8DFE802F0075959591B5959595B
:102428003059595944000068FFF7AEFE2268936995
:1024380043F0080393612268936923F004039361CE
:102448002268936929690B43936100203EE0006884
:10245800FFF7A2FF2268936943F40063936122683F
:10246800936923F48063936122689369296943EA35
:1024780001239361002029E00068FFF7B3FE22687A
:10248800D36943F00803D3612268D36923F00403B6
:10249800D3612268D36929690B43D361002015E011
:1024A8000068FFF7D1FE2268D36943F40063D36163
:1024B8002268D36923F48063D3612268D3692969C8
:1024C80043EA0123D361002000E00120002384F8BF
:1024D8003C3038BD0220FCE701F01F01012303FA5C
:1024E80001FC036A23EA0C030362036A02FA01F19E
:1024F8000B4303627047000010B5044608460029E4
:1025080032D194F83E30DBB2013B18BF0123002BD7
:1025180063D1002841D1022384F83E3001220146CC
:102528002068FFF7D9FF23682E4A934245D02368D5
:102538002C4A934246D0B3F1804F43D0A2F57C4257
:1025480093423FD002F5806293423BD002F580620D
:10255800934237D002F59A32934233D01A6842F048
:1025680001021A60002037E0042908D008290DD09C
:1025780094F84130DBB2013B18BF0123C7E794F858
:102588003F30DBB2013B18BF0123C0E794F840306D
:10259800DBB2013B18BF0123B9E7042805D008289E
:1025A80007D0022384F84130B8E7022384F83F308B
:1025B800B4E7022384F84030B0E75A6C42F4004292
:1025C8005A64B4E79A6802F00702062A07D01A6824
:1025D80042F001021A60002010BD0120FCE7002033
:1025E800FAE700BF0000014038B504460D46002256
:1025F8000068FFF771FF23681B4A934214D02368D1
:10260800196A41F21112114208D1196A40F2444282
:10261800114203D11A6822F001021A609DB9012300
:1026280084F83E30002038BD196A41F21112114277
:10263800E5D1196A40F244421142E0D15A6C22F4C1
:1026480000425A64DBE7042D05D0082D07D001238A
:1026580084F84130E6E7012384F83F30E2E70123BC
:1026680084F84030DEE700BF0000014000230F2B54
:1026780000F2D28070B582B060E085685E00032405
:10268800B44025EA0405CC68B4402C43846045680E
:1026980025EA02054C68C4F300129A402A434260B6
:1026A8005AE0DC08083450F8246003F0070295006B
:1026B8000F22AA4026EA020E0A69AA4042EA0E023E
:1026C80040F824205CE0042200E0002202FA0EF226
:1026D8002A430234514D45F82420514A94686FEA40
:1026E8000C0224EA0C054E6816F4801F01D04CEA4F
:1026F80004054B4CA560E46802EA04054E6816F42C
:10270800001F01D04CEA0405454CE560646802EA04
:1027180004054E6816F4003F01D04CEA0405404C0D
:102728006560246822404D6815F4803F01D04CEA6A
:1027380004023B4C226001330F2B6BD801229A40D4
:102748000C6804EA020C32EA0404F4D14C6804F080
:102758000304013C012C90D94A6802F00302032AC1
:1027680009D0C4685D000322AA4024EA02048A68EA
:10277800AA402243C2604A6802F00302022A90D0AB
:1027880004684FEA430E032202FA0EF224EA020416
:102798004A6802F0030202FA0EF2224302604A6813
:1027A80012F4403FC7D0002201921E4A546C44F4F0
:1027B80080445464526C02F480420192019A9C084D
:1027C800A51C164A52F8255003F003024FEA820E60
:1027D8000F2202FA0EF225EA0205134A90423FF44C
:1027E80074AF02F5806290420ED002F5806290428A
:1027F8000CD002F5806290420AD002F580629042C5
:102808003FF461AF072261E701225FE702225DE73B
:1028180003225BE702B070BD704700BF003801407B
:10282800003C01400038024000000240002800F04F
:10283800E08170B582B00446036813F0010F3BD005
:102848009F4B9B6803F00C03042B2CD09C4B9B687C
:1028580003F00C03082B21D06368B3F5803F4FD0F9
:10286800B3F5A02F52D0964B1A6822F480321A6022
:102878001A6822F480221A606368002B50D0FFF790
:1028880073FB05468E4B1B6813F4003F14D1FFF70A
:102898006BFB401B6428F5D90320B1E1884B5B68CA
:1028A80013F4800FD8D0864B1B6813F4003F03D075
:1028B8006368002B00F09F81236813F0020F54D047
:1028C8007F4B9B6813F00C0F3ED07D4B9B6803F049
:1028D8000C03082B33D0E368002B68D0794B012216
:1028E8001A60FFF741FB0546754B1B6813F0020F92
:1028F80054D1FFF739FB401B0228F5D903207FE1AB
:102908006F4A136843F480331360B5E76C4B1A6859
:1029180042F480221A601A6842F480321A60ABE7E7
:10292800FFF722FB0546664B1B6813F4003FC3D034
:10293800FFF71AFB401B6428F5D9032060E1604BC0
:102948005B6813F4800FC6D15D4B1B6813F0020F50
:1029580003D0E368012B40F05081594A136823F0F3
:10296800F803216943EAC1031360236813F0080FD1
:1029780042D063696BB3534B0122C3F8802EFFF733
:10298800F3FA05464E4B5B6F13F0020F34D1FFF795
:10299800EBFA401B0228F5D9032031E1484A1368B5
:1029A80023F0F803216943EAC1031360DDE7454BCF
:1029B80000221A60FFF7D8FA0546414B1B6813F04E
:1029C800020FD2D0FFF7D0FA401B0228F5D9032016
:1029D80016E13C4B0022C3F8802EFFF7C5FA0546E6
:1029E800374B5B6F13F0020F06D0FFF7BDFA401BA1
:1029F8000228F5D9032003E1236813F0040F77D0E8
:102A08002F4B1B6C13F0805F33D1002301932C4BA9
:102A18001A6C42F080521A641B6C03F080530193C5
:102A2800019B0125284B1B6813F4807F23D0A368E2
:102A3800012B34D0052B38D0214B1A6F22F001021C
:102A48001A671A6F22F004021A67A368002B3DD098
:102A5800FFF78AFA06461A4B1B6F13F0020F46D18E
:102A6800FFF782FA801B41F288339842F3D903209A
:102A7800C6E00025D6E7144A136843F48073136050
:102A8800FFF772FA0646104B1B6813F4807FCED10D
:102A9800FFF76AFA801B0228F5D90320B0E0084A3C
:102AA800136F43F001031367CFE7054B1A6F42F02A
:102AB80004021A671A6F42F001021A67C5E700BFDD
:102AC800003802400000474200700040FFF74CFA0F
:102AD8000646524B1B6F13F0020F08D0FFF744FA5B
:102AE800801B41F288339842F3D9032088E0EDB97E
:102AF800A369002B00F08380484A926802F00C0218
:102B0800082A51D0022B17D0454B00221A66FFF72E
:102B18002BFA0446414B1B6813F0007F42D0FFF7A5
:102B280023FA001B0228F5D9032069E03B4A136CFD
:102B380023F080531364DBE7394B00221A66FFF752
:102B480013FA0546354B1B6813F0007F06D0FFF7D4
:102B58000BFA401B0228F5D9032051E0E369226AE9
:102B68001343626A43EA8213A26A5208013A43EAAB
:102B78000243E26A43EA0263284A5360284B01226F
:102B88001A66FFF7F1F90446244B1B6813F0007F1F
:102B980006D1FFF7E9F9001B0228F5D903202FE039
:102BA80000202DE000202BE0012B2BD01B4B5B6875
:102BB80003F48001E269914226D103F03F02216AC1
:102BC8008A4223D1616A47F6C0721A40B2EB811F6C
:102BD8001ED103F44031A26A5208013AB1EB024F08
:102BE80018D103F07063E26AB3EB026F14D10020CE
:102BF80006E001207047012002E0012000E00020EB
:102C080002B070BD0120FBE70120F9E70120F7E7DA
:102C18000120F5E70120F3E70120F1E70038024041
:102C28000000474208B52F4B9B6803F00C03082BA4
:102C380001D02D4808BD2B4B5A6802F03F025B6853
:102C480013F4800F2AD0274B5968C1F3881C4FEA28
:102C58004C11B1EB0C006EEB0E0E4FEA8E1343EAEB
:102C680090638101091A63EB0E03DB0043EA517399
:102C7800C90011EB0C0C43F10003990200234FEA41
:102C88008C2041EA9C51FEF72BF9164B5B68C3F385
:102C9800014301335B00B0FBF3F0CBE7114B5968FC
:102CA800C1F3881C4FEA4C11B1EB0C006EEB0E0E11
:102CB8004FEA8E1343EA90638101091A63EB0E030E
:102CC800DB0043EA5173C90011EB0C0C43F100031C
:102CD800990200234FEA8C2041EA9C51FEF700F943
:102CE800D3E700BF003802400024F400002800F0B9
:102CF8009B8070B50D4604464F4B1B6803F00703D5
:102D08008B4208D2CBB24C4A1370136803F0070306
:102D18008B4240F08B80236813F0020F17D013F01A
:102D2800040F04D0454A936843F4E0539360236842
:102D380013F0080F04D0414A936843F4604393604A
:102D48003E4A936823F0F003A1680B43936023681D
:102D580013F0010F32D06368012B21D09A1E012A8B
:102D680025D9364A126812F0020F61D033498A68B1
:102D780022F0030213438B60FFF7F6F806462F4B49
:102D88009B6803F00C036268B3EB820F16D0FFF761
:102D9800EBF8801B41F288339842F0D9032042E0D7
:102DA800264A126812F4003FE0D101203BE0234A92
:102DB800126812F0007FD9D1012034E01E4B1B6845
:102DC80003F00703AB4207D9EAB21B4B1A701B6822
:102DD80003F00703AB422DD1236813F0040F06D08C
:102DE800164A936823F4E053E1680B439360236821
:102DF80013F0080F07D0114A936823F46043216940
:102E080043EAC1039360FFF70DFF0C4B9B68C3F3C4
:102E180003130B4AD35CD8400A4B18600A4B186856
:102E2800FFF756F8002070BD012070470120FAE72F
:102E38000120F8E70120F6E7003C02400038024094
:102E4800B86100080000002008000020014B186845
:102E5800704700BF0000002008B5FFF7F7FF044BDC
:102E68009B68C3F38223034AD35CD84008BD00BFE4
:102E780000380240C861000808B5FFF7E7FF044BB7
:102E88009B68C3F34233034AD35CD84008BD00BFF4
:102E980000380240C8610008074AD36823F4E06399
:102EA8001B041B0C000200F4E060034343F0BF6303
:102EB80043F40033D360704700ED00E000B5194BD0
:102EC800DB68C3F30223C3F1070CBCF1040F28BF6E
:102ED8004FF0040C03F1040EBEF1060F18D9033BA2
:102EE8004FF0FF3E0EFA0CFC21EA0C0199400EFA55
:102EF80003F322EA0303194300280BDB0901C9B2D3
:102F080000F1604000F5614080F800135DF804FBB3
:102F18000023E5E700F00F000901C9B2024B19547C
:102F2800F4E700BF00ED00E014ED00E00138B0F177
:102F3800807F0BD24FF0E0235861054AF02182F8D8
:102F480023100020986107221A61704701207047FA
:102F580000ED00E0704700285AD010B50446436AD7
:102F680033B94368B3F5827F05D00023C36102E01B
:102F78000023036143610023A36294F85130002BBE
:102F880040D0022384F851302268136823F04003AC
:102F98001360636803F48273A26802F40442134363
:102FA800E26802F400621343226902F0020213434A
:102FB800626902F001021343A26902F4007213432A
:102FC800E26902F038021343226A02F080021343D6
:102FD800A26A02F40052216813430B60638B03F06A
:102FE8000403626A02F01002216813434B602268EE
:102FF800D36923F40063D36100206065012384F85A
:10300800513010BD84F850302046FFF7A3FFB8E7D1
:103018000120704745F2082303FB00F004E0004656
:103028000046004600461846431E0028F7D1704760
:10303800EFF3108C72B683684268013A1340026855
:10304800D1548368013383608CF31088704770B55E
:1030580006460C4605E014F8011B3046FFF7E8FF6A
:103068002A46551E002AF6D170BDEFF3108C72B6B1
:103078008368C2689B1A16D000B5C268D0F804E00D
:103088000EF1FF3E02EA0E02D0F800E01EF8022020
:103098000A70C2680132C2608CF31088181E18BF0B
:1030A80001205DF804FB8CF31088181E18BF01205E
:1030B8007047EFF3108272B600238360C36082F317
:1030C8001088704710B504460846FDF791FE606108
:1030D8004FF07E532361002323770122A2602360EF
:1030E8006360637710BDF8B50446FEF73DFF2060C6
:1030F800267FE6B90546A368A3B121696069FDF793
:1031080079F807462846FDF773FE3946FDF7C0FDF6
:10311800FDF7C6FEA36913B1834200D2C01A6060EE
:103128000023A36063689D4205D23046F8BD0123A1
:10313800A3600026F9E721696069FDF75BF8064698
:103148002846FDF755FE3146FDF7A2FDFDF7A8FE1E
:10315800A36913B1834200D2C01A60600126E4E774
:1031680084B00368194A934209D002F580629342F9
:103178001FD0A2F5504293420ED004B070470023EE
:103188000193134B5A6C42F010025A645B6C03F0C3
:1031980010030193019BF0E7002302930C4B1A6C78
:1031A80042F400321A641B6C03F400330293029B4E
:1031B800E3E700230393064B5A6C42F020025A645B
:1031C8005B6C03F020030393039BD6E700100140D8
:1031D8000038024003680C4A934208D002F5806226
:1031E80093420CD0A2F55042934204D07047074B4B
:1031F80020225A607047054B40225A607047034BA3
:1032080080229A60F2E700BF0010014000E100E070
:1032180002B9704710B504461830FFF718FF236845
:103228005A6912F0080F03D0DA6822F00402DA6053
:103238002268D36843F08003D36010BD00B583B023
:103248000DF107010830FFF710FF20B19DF80700C6
:1032580003B05DF804FB4FF0FF30F9E710B5044602
:103268001830FFF726FF04F10800FFF722FF10BD12
:1032780038B504460D46436802681A604068FEF790
:1032880069FF2046FFF76CFF2046FFF7E7FF6368FA
:1032980022681A606368D5F8E0205A6063680022E3
:1032A8009A602B6903F4807262B113F4007F04D032
:1032B80063684FF4C0621A6107E063684FF4806284
:1032C8001A6102E0636800221A612B6913F0400F4B
:1032D8000FD063684FF40052DA602B6903F40032B0
:1032E8005AB113F4803F08D063684FF440729A6172
:1032F80008E063680022DA60EFE7C2B163684FF460
:1033080080729A6163680022DA6163680C225A61EC
:103318002B6E012B17D06068FEF7B5FE2268D368C4
:1033280043F02003D3602046FFF754FF38BD13F461
:10333800803F04D063684FF400729A61E2E76368E3
:1033480000229A61DEE76068FEF7CDFEE6E700003E
:1033580008B51D4B19680B6813F0200F09D0496890
:10336800C9B213F00F0F00D008BD1848FFF760FE70
:10337800FAE713F0400F0AD00B6823F040030B6004
:10338800114B1A68D36843F00403D360ECE713F0D9
:10339800800FE9D00B6813F0800FE5D004310C489A
:1033A800FFF763FE0028DFD1074B1B68DA6822F0BD
:1033B8008002DA605A6912F0080FD5D0DA6842F054
:1033C8004002DA60D0E700BF0C00002014000020A3
:1033D8002400002008B51D4B19680B6813F0200F56
:1033E80009D04968C9B213F00F0F00D008BD1848BA
:1033F800FFF71EFEFAE713F0400F0AD00B6823F020
:1034080040030B60114B1A68D36843F00403D36080
:10341800ECE713F0800FE9D00B6813F0800FE5D0CC
:1034280004310C48FFF721FE0028DFD1074B1B6849
:10343800DA6822F08002DA605A6912F0080FD5D0F3
:10344800DA6842F04002DA60D0E700BF34000020BA
:103458003C0000204C0000200020052808DC00EB80
:103468004013DA00054B13441B790BB10130F4E724
:10347800062800D070474FF0FF30FBE7C817002040
:10348800052805DC00EB4010024B03EBC000704739
:1034980000207047C817002008B54FF4C662002105
:1034A800024800F019F900F05BF808BDC8170020C1
:1034B800F0B5C3B0694600F061F8E0B1FFF7CCFFA2
:1034C800041E15DB0D4F650104EB441607EBC60619
:1034D8004FF484726946304600F0F0F80021B1607C
:1034E800F4602819C0002030E822384400F0F4F8CD
:1034F800204643B0F0BD4FF0FF34F9E7C81700206D
:1035080010B50C46FFF7BCFF38B10146E822203160
:10351800204600F0D3F8002010BD4FF0FF30FBE745
:1035280038B51446FFF7ACFF70B10546E8222146CE
:10353800203000F0C3F82B79012B08D121462868E8
:10354800FFF796FE002038BD4FF0FF30FBE74FF045
:10355800FF30F8E7C0F8E410C0F8E010002070472A
:10356800034B02221A60034B034A1A60704700BFDC
:10357800F81D0020FC1D0020E0610008F8B5064693
:103588000F46002500E001350E4B1B68AB4216DDE7
:103598000D4B1C68342303FB054421463046FCF7D9
:1035A80017FE0028EFD1236A3B6094F82400387195
:1035B800A36A3B61E36A7B61236BBB6100E0002087
:1035C800F8BD00BFF81D0020FC1D002010B50C46FA
:1035D8000A4601460248FFF71BFE204610BD00BF01
:1035E8000C00002070B504460D46002605E0234671
:1035F80003F8010B0136013D1C462DB10348FFF7C6
:103608001DFEB0F1FF3FF2D1304670BD0C00002026
:1036180010B50C460A4601460248FFF7F9FD204658
:1036280010BD00BF3400002070B504460D460026CA
:1036380005E0234603F8010B0136013D1C462DB178
:103648000348FFF7FBFDB0F1FF3FF2D1304670BDF4
:103658003400002070B500260C4D0D4C641BA410DE
:10366800A64209D102F08EFD00260A4D0A4C641BC1
:10367800A410A64205D170BD55F8043B9847013601
:10368800EEE755F8043B98470136F2E77466000800
:1036980074660008746600087866000810B5013979
:1036A8000244904201D1002005E0037811F8014F4F
:1036B800A34201D0181B10BD0130F2E70A44914221
:1036C80000F1FF3300D1704710B511F8014B91425A
:1036D80003F8014FF9D110BD03460244934200D1CB
:1036E800704703F8011BF9E7002B2DE9F0471F4647
:1036F800BBBF03F100431F4600232D2388B01446A7
:10370800129A109D1370149BDDF84CA023F020082A
:10371800B8F1460F05D0B8F1450F00D101350223A5
:1037280000E0032307AA049206AACDE902A2CDE984
:10373800003522463B4600F0C3FCB8F1470F064669
:1037480002D1119BDB0722D5B8F1460F06EB05091C
:1037580010D13378302B0AD1002200232046394675
:10376800FDF720FA18B9C5F10105CAF80050DAF8D2
:10377800003099440022002320463946FDF712FA0A
:1037880008B1CDF81C903022079B4B4507D3304633
:10379800079B159A9B1B136008B0BDE8F087591C5E
:1037A80007911A70F0E70346F7B5002903F8022BD2
:1037B800B6BF2D222B224942092942702BDD0DF17B
:1037C8000704A4460A2791FBF7F60A46A64607FB14
:1037D8001615632A05F13005314604F1FF340EF859
:1037E800015CF0DC3031AEF1020504F8011C294619
:1037F800441C61450AD30DF10902A2EB0E0265458E
:1038080088BF00221344181A03B0F0BD11F8012B29
:1038180004F8012FEDE7302330318370C170031DA8
:10382800F1E700002DE9F04F91B00C46DDF8688013
:1038380016461F46054601F031FA036818460993F3
:10384800FCF7D0FC00230E93D8F800300A90073319
:1038580023F0070303F1080294F81890D4F800B095
:10386800C8F80020D3E90023C4E91223D4E9128A56
:103878002AF000430B934FF0FF3240469C4B0B99C4
:10388800FDF7C2F970BB4FF0FF324046984B0B99D9
:10389800FDF79CF930BB0022002340465146FDF756
:1038A8008BF910B12D2384F84330924B9248B9F12B
:1038B800470F94BF9846804603234FF0000A2361C0
:1038C8002BF00403236033462146284600970FAAAD
:1038D80000F0D4F9013040F090804FF0FF3011B083
:1038E800BDE8F08F4246534640465146FDF78CF9F5
:1038F80048B1BAF1000FB8BF2D238048B8BF84F88B
:1039080043307F4BD3E7636809F0DF015A1C42D18B
:1039180006236360002206920EAACDE904920DAA3E
:103928004BF4806303920DF13302CDE90132236039
:10393800636842460093284653460B91FFF7D4FE2E
:103948000B99804647290D9908D1C81C02DB63688A
:10395800994240DDA9F102095FFA89F9B9F1650FC9
:103968001FD84A46013904F150000D91FFF71BFF9B
:103978000E9A82461318012A236102DC2268D207B4
:1039880001D5013323619DF83330002B9BD02D23C3
:1039980084F8433097E74729BCD1002BBAD10123DB
:1039A800B7E7B9F1660F18D1002963680BDD21610B
:1039B80013B92268D00702D501330B4423614FF0B5
:1039C800000AA165DFE713B92268D20701D50233DF
:1039D800F4E70123F2E74FF067090E9B994205DBF4
:1039E80023682161D807EAD54B1CE7E70029CCBF3B
:1039F8000122C1F102021344E0E723685A0507D403
:103A08002369424631462846B84701302BD164E73E
:103A1800B9F1650F40F2DD80D4E9120100220023DC
:103A2800FDF7C0F8002833D0012331462846354A2F
:103A3800B84701303FF451AFDDE90D239A4202DB6C
:103A48002368D8070FD5DDE9092331462846B8474A
:103A580001303FF442AF4FF0000804F11A090E9B01
:103A6800013B434509DC23689B0700F10281E068BC
:103A78000F9B9842B8BF184631E701234A463146A2
:103A88002846B84701303FF428AF08F10108E6E7B7
:103A98000D9B002B38DC012331462846194AB847CC
:103AA80001303FF41AAFDDE90D23134302D1236837
:103AB800D907D8D5DDE9092331462846B84701306A
:103AC8003FF40BAF4FF0000904F11A0A0D9B5B425B
:103AD8004B4501DC0E9B94E70123524631462846AC
:103AE800B84701303FF4F9AE09F10109EEE700BF2C
:103AF800FFFFEF7F4C620008506200085862000820
:103B0800546200085C6200080E9AA36D9A42A8BF2E
:103B18001A46002A914637DC4FF0000B29EAE9796A
:103B280004F11A02D4F858A0AAEB09035B4533DC68
:103B3800DDE90D239A423BDB2368DA0738D40E9B74
:103B48000D99A3EB0A02A3EB01099145A8BF914681
:103B5800B9F1000F34DC4FF0000829EAE97904F1E3
:103B68001A0ADDE90D239B1AA3EB090343457FF7E6
:103B78007AAF0123524631462846B84701303FF410
:103B8800ACAE08F10108ECE7134631464246284638
:103B9800B8470130C0D1A0E60123314628460B9230
:103BA800B84701303FF499AE0B9A0BF1010BB9E716
:103BB8003146DDE909232846B8470130BFD18CE6F4
:103BC8004B463146284608EB0A02B8470130C2D1B5
:103BD80083E60E9A012A01DCDB0737D5012342462A
:103BE80031462846B84701303FF477AEDDE909236E
:103BF80031462846B84701303FF46FAED4E9120188
:103C080000220023FCF7CEFFD8B90E9B08F1010271
:103C1800013B31462846B84701300ED15DE6012305
:103C28004A4631462846B84701303FF456AE08F1B7
:103C380001080E9B013B4345F1DC534604F1500259
:103C4800E0E64FF0000804F11A09F2E701234246C2
:103C5800DFE701234A4631462846B84701303FF49A
:103C68003CAE08F10108E3680F995B1A4345F0DCA4
:103C7800FDE64FF0000804F11909F4E72DE9F047D3
:103C8800164699468A680B6907469342B8BF134699
:103C9800336091F843200C46DDF820800AB10133E7
:103CA80033602368990642BF33680233336025685E
:103CB80015F0060506D104F1190AE36832689B1A63
:103CC800AB4228DC94F84320131E226818BF012356
:103CD80092062DD44946384604F14302C0470130C4
:103CE80020D02368E56803F00603042B18BF0025DD
:103CF80032684FF00006A36808BFAD1A226908BFF2
:103D080025EAE5759342C4BF9B1AED181A34B542EB
:103D18001AD1002008E00123524649463846C047D8
:103D2800013003D14FF0FF30BDE8F0870135C4E71B
:103D38003020E11881F843005A1C94F845102244B9
:103D4800023382F84310C5E7012322464946384624
:103D5800C0470130E6D00136D9E700002DE9FF471A
:103D68000F7E9146782F80460C469A460C9D01F1AD
:103D7800430207D8622F0AD8002F00F0D980582FA5
:103D880000F0A48004F1420584F842703AE0A7F1FB
:103D98006303152BF6D801A151F823F0FD3D000867
:103DA800113E00088D3D00088D3D00088D3D00083E
:103DB8008D3D0008113E00088D3D00088D3D00082E
:103DC8008D3D00088D3D00081F3F0008413E00085A
:103DD800013F00088D3D00088D3D0008413F000867
:103DE8008D3D0008413E00088D3D00088D3D0008CE
:103DF800093F00082B681A1D1B682A6004F1420558
:103E080084F842300123A4E020682968060601F1FD
:103E180004030AD50E682B60002E03DA2D237642A0
:103E280084F843300A235E4819E00E6810F0400F0A
:103E38002B6018BF36B2EFE72B682068191D296080
:103E4800010601D51E6802E04606FBD51E886F2FC5
:103E58000CBF08230A235248002184F843106568E0
:103E6800002DA8BF2168A560A4BF21F0040121602E
:103E78000EB9002D4DD01546B6FBF3F103FB1167C3
:103E8800C75D05F8017D3746BB420E46F4D9082BBD
:103E98000BD12368DE0708D5236961689942DEBF24
:103EA800302305F8013C05F1FF35521B22614B46D2
:103EB80021464046CDF800A003AAFFF7DFFE0130F7
:103EC8004CD14FF0FF3004B0BDE8F087344881F89A
:103ED80045702968236851F8046B29601D0614D5BC
:103EE800DF0744BF43F0200323601EB9236823F093
:103EF800200323601023AFE7236843F020032360E7
:103F08007823284884F84530E3E7590648BFB6B215
:103F1800E6E71546BBE72B682668181D6169286027
:103F280035061B6801D5196002E07006FBD51980BB
:103F3800002315462361BAE72B6800211A1D2A6061
:103F48001D686268284600F0B5FE08B1401B606035
:103F580063682361002384F84330A8E72A4649466A
:103F680040462369D0470130ABD023689B0713D460
:103F7800E068039B9842B8BF1846A4E7012332467D
:103F880049464046D04701309BD00135E368039944
:103F98005B1AAB42F2DCEBE7002504F11906F5E702
:103FA8005E6200086F6200082DE9F74F03690C692B
:103FB8000746A342C0F28280013C00F1140501F1DA
:103FC800140805EB8403019358F8243055F824208D
:103FD80001339A42B2FBF3F64FEA840B08EB8409EB
:103FE80031D34FF0000E4046AC46F24650F8042B51
:103FF80093B206FB03E3120C4FEA134E9BB206FB87
:1040080002E2AAEB0303DCF800A04FEA124E1FFA03
:104018008AFA5344DCF800A092B2C2EB1A4202EBCF
:1040280023429BB243EA024381454FEA224A4CF8B5
:10403800043BDBD255F80B302BB9019B043B9D4266
:104048001A462FD33C61384601F0C0F8002825DB1A
:1040580028464FF0000C013658F8041BD0F800E051
:104068008BB2ACEB03031FFA8EF213440A0CC2EBBB
:104078001E4202EB23429BB243EA0243C1454FEA88
:10408800224C40F8043BE7D255F8242005EB840382
:1040980022B9043B9D421A460AD33C61304603B01C
:1040A800BDE8F08F1268043B002ACBD1013CC6E77B
:1040B8001268043B002AF0D1013CEBE70020EEE750
:1040C8002DE9F04F16461F46446A99B00546CDE9DA
:1040D8000467DDF8948074B9102000F0E3FD02460F
:1040E800686220B9EA21A84BA84801F073FAC0E930
:1040F80001440460C4606B6A196851B15A680123AD
:1041080093404A608B60284600F022FE00226B6ACA
:104118001A603B1EAFBF0023012223F00043059322
:10412800A8BFC8F80030DDF81490994BB8BFC8F89C
:10413800002033EA090319D142F20F73249A13605D
:10414800C9F31303334300F07F85269B53B9914B82
:1041580022E0914B03930833269A1360039819B011
:10416800BDE8F08F8B4B03930333F5E7DDE90434A7
:10417800CDE90C34DDE90C0100220023FCF712FD27
:10418800804658B10123249A1360269B002B00F027
:10419800588582481860431E0393DFE716AB0193E6
:1041A80017AB00932846DDE90C2301F0B7F8C9F3F3
:1041B8000A548346002C7FD0DDE90C010D9BA4F244
:1041C800FF34C3F3130343F07F5141F44011CDF89A
:1041D8004C800022724BFCF7C5F865A3D3E9002395
:1041E800FCF778FA64A3D3E90023FCF7BDF8064688
:1041F80020460F46FCF704FA61A3D3E90023FCF735
:1042080069FA02460B4630463946FCF7ADF80646D1
:104218000F46FCF70FFD0022824600233046394640
:10422800FCF7CAFC48B15046FCF7EAF932463B466F
:10423800FCF7B8FC08B90AF1FF3ABAF1160F58D8DA
:10424800DDE90C01574B03EBCA03D3E90023FCF764
:10425800B3FC00284FD000230AF1FF3A0F93169BB6
:104268001C1B631E099349BFC4F101030023069375
:10427800002354BF06930993BAF1000F3DDB099B55
:10428800CDF838A05344099300230A93229B092BA5
:1042980000F28C80052BC4BF043B2293229BC8BF2D
:1042A8000024A3F10203D8BF0124032B00F28A8063
:1042B800DFE803F02D4F4D5BDDE916431C4404F2A3
:1042C8003243202BC3BFC3F1400304F2124009FA62
:1042D80003F3C3F12003C6BF26FA00F0184306FA19
:1042E80003F0FCF77DF90123A1F1F871013C139368
:1042F8006FE70123B2E70F90B1E7069BA3EB0A0330
:104308000693CAF100030A9300230E93BEE7002325
:104318000B93239B002B58DC4FF001094B46CDF83B
:104328002090CDF88C900022686A4260042202F145
:1043380014069E4241684ED9284600F0C9FC0390F5
:1043480000284CD102464FF4D571174BCCE6012317
:10435800DEE700230B93239B0AEB030909F1010312
:10436800012B0893B8BF0123DDE70123F2E700BF63
:1043780061436F63A787D23FB3C8608B288AC63F63
:10438800FB799F501344D33F8D620008A462000854
:104398000000F07F89620008806200085D62000802
:1043A8000000F83FE06300082263000801240023AE
:1043B8000B9422934FF0FF3900221223CDF820905E
:1043C8002392B0E701230B93F4E7DDF88C904B467A
:1043D800CDF82090A7E7013141605200A7E76B6A4A
:1043E800039A1A60089B0E2B00F2A880002C00F09C
:1043F800A580BAF1000F34DD9A4A0AF00F0302EBE8
:10440800C3031AF4807FD3E90034CDE910344FEAAE
:104418002A1416D0DDE90C01934B0327D3E90823AE
:10442800FCF782FACDE9040104F00F048E4E54B96A
:10443800DDE91023DDE90401FCF776FACDE9040192
:1044480029E00227F2E7E10708D5DDE91001D6E9FE
:104458000023FCF73FF9CDE9100101376410083655
:10446800E5E700F0A580DDE90C01CAF100047D4B09
:1044780004F00F0203EBC203D3E90023FCF72AF987
:1044880002270023CDE90401774E2411002C40F0C7
:104498008480002BD2D10F9B002B00F08B80DDE9AC
:1044A8000434CDE91034DDE9100100226F4BFCF72C
:1044B80083FB00287ED0089B002B7BD0B9F1000F2E
:1044C80038DDDDE910010022694BFCF703F94C46A1
:1044D800CDE904010AF1FF3801373846FCF790F8B6
:1044E800DDE90423FCF7F6F80022624BFBF73CFFFA
:1044F800A1F15076CDE910011196002C5DD1DDE9CE
:10450800040100225C4BFBF72DFF02460B46CDE968
:1045180004233346109AFCF76DFB002840F09C8278
:10452800DDE90401109A06F10043FCF745FB002879
:1045380040F09082DDE90C34CDE90434179B002B60
:10454800C0F25281BAF10E0F00F34E81454B03EBD6
:10455800CA03D3E90034CDE90634239B002B80F24B
:10456800DB80089B002B00F3D78040F07282DDE9E6
:1045780006010022404BFCF7ADF8DDE90423FCF707
:104588002FFB089C2646002840F048823123039FD1
:104598000AF1010A07F8013B44E2E20705D5D6E92A
:1045A8000023FCF797F801230137641008366DE7FC
:1045B800022770E7D046089C8FE70399294B2144CE
:1045C80012910B9903EBC403DDE9106753E9022349
:1045D800002955D000202949FCF7A6F93B46324668
:1045E800FBF7C0FECDE91001039FDDE90401FCF7EC
:1045F80021FB0446FCF704F802460B46DDE90401FA
:10460800FBF7B0FE02460B463034CDE90423DDE962
:10461800102307F8014BFCF7CFFA002874D1DDE925
:10462800042300201149FBF79DFEDDE91023FCF768
:10463800C3FA002840F0B780129B9F423FF47AAF3C
:10464800DDE9100100220A4BFCF744F80022CDE90D
:104658001001DDE90401064BFCF73CF8CDE9040143
:10466800C3E700BFE0630008B86300080000F03F3C
:104678000000244000001C40000014400000E03FFF
:1046880030463946FCF726F8129BCDE91001039C09
:104698001493DDE90401FCF7CDFA1590FBF7B0FFA0
:1046A80002460B46DDE90401FBF75CFE159B064656
:1046B800303304F8013B129B0F469C424FF0000236
:1046C80024D1DDE91001B04BFBF74EFE02460B4644
:1046D80030463946FCF78EFA002863D1DDE910230D
:1046E8000020A949FBF73EFE02460B4630463946F4
:1046F800FCF762FA00283FF41DAF149F7B1E149349
:1047080017F8013C302BF8D0C2463BE09F4BFBF733
:10471800E1FFCDE90401BCE7039FDDE90489DDE998
:10472800062340464946FCF7FFF8FCF783FA04469F
:10473800FBF766FFDDE90623FBF7CCFF02460B46D5
:1047480040464946FBF70EFE04F1300607F8016BB8
:10475800039EDDF820C0BE1BB44502460B4636D189
:10476800FBF702FEDDE9062380468946FCF742FA9C
:1047780058BBDDE9062340464946FCF713FA08B161
:10478800E10722D42846594600F0E2FA00233B709C
:10479800249B0AF101001860269B002B3FF4DEAC35
:1047A8001F60DBE427463B461F4613F8012D392AD4
:1047B80007D1039A9A42F7D13022039908F10108E8
:1047C8000A701A7801321A709EE7D046EBE7002289
:1047D8006E4BFBF77FFF0022002380468946FCF7DB
:1047E800E1F900289BD0CDE70B9A002A00F0D08091
:1047F800229A012A00F3AE80139A002A00F0A680BC
:1048080003F233430A9C069F069A01211A44069232
:10481800099A28461A44099200F050FB0646002FD0
:104828000CDD099B002B09DDBB42A8BF3B46069A5D
:10483800FF1AD21A0692099AD31A09930A9BF3B15E
:104848000B9B002B00F0A880002C10DD314622467F
:10485800284600F0F1FB5A4601460646284600F075
:1048680043FB80465946284600F072FAC3460A9B25
:104878001A1B04D05946284600F0DEFB8346012166
:10488800284600F01BFB0E9B0446002B40F3868055
:104898001A460146284600F0CFFB229B0446012B0E
:1048A8007FDD4FF00008236904EB8303186900F0EB
:1048B800B7FAC0F12000099B184410F01F0000F05F
:1048C8009280C0F12003042B40F38A80C0F11C00C1
:1048D800069B074403440693099B03440993069BDC
:1048E800002B05DD59461A46284600F0FFFB834693
:1048F800099B002B05DD21461A46284600F0F6FBE9
:1049080004460F9B002B70D02146584600F05EFCF1
:1049180000286ADA002359460A22284600F03AFAA3
:104928000B9B83460AF1FF3A002B00F09481314635
:1049380000230A22284600F02DFAB9F1000F064696
:1049480000F39380229B022B57DC8EE0169BC3F169
:10495800360357E7089B5C1E0A9BA342B7BF0A9B16
:104968001C1BE21A0E9BBEBF0A949B180E93089B51
:10497800B8BF0024002BBBBF069B089A069F9F1A4E
:10498800ACBF089B00233FE70000E03F0000244045
:104998000A9C069F0B9E42E70A9A6BE7229B012B13
:1049A80019DC049BBBB9059BC3F313039BB9059B97
:1049B80023F000431B0D1B0583B14FF00108069B34
:1049C80001330693099B013309930E9B002B7FF457
:1049D8006AAF01206FE74FF00008F6E79846F4E762
:1049E8003FF47DAF18461C3072E7089B002B36DC7D
:1049F800229B022B33DDDDF82090B9F1000F0DD199
:104A080021464B460522284600F0C4F901460446D3
:104A1800584600F0DBFB00283FF7B8AD239B039F07
:104A28006FEA030A4FF000082146284600F090F983
:104A3800002E3FF4A7AEB8F1000F05D0B04503D063
:104A48004146284600F084F93146284600F080F9AE
:104A580098E600242646E1E7C246264696E50B9BE3
:104A6800DDF82090002B00F0FD80002F05DD314699
:104A78003A46284600F03AFB0646B8F1000F5CD0EB
:104A88002846716800F024F9074628B9024640F222
:104A9800EA217F4BFFF728BB326906F10C0102328D
:104AA80092000C30FEF70AFE01223946284600F033
:104AB8001DFBB0460646039B01330893039B4B44FA
:104AC8000A93049B03F001030993089B2146013BC9
:104AD80058460493FFF768FA034641463033069078
:104AE80058460B9300F072FB324681462146284611
:104AF80000F088FBC26807460B9B02BB014658467C
:104B080000F064FB02460B9B39462846CDE90B3280
:104B180000F01EF9229B0C9A089F43EA0201099BA8
:104B28000B430B9B0DD1392B29D0B9F1000F01DDB7
:104B3800069B3133049A137076E73046B9E70122B1
:104B4800E2E7B9F1000F06DB229941EA0909099960
:104B580059EA010120D1002AECDD594601222846F4
:104B6800089300F0C3FA2146834600F02FFB002883
:104B7800089B02DCDED1DA07DCD5392BD8D1392302
:104B8800049A13703B461F4617F8012C013B392A3B
:104B980050D001321A7047E7002A03DD392BEED0D6
:104BA8000133C7E7089A0A9902F8013C8A422AD0D9
:104BB800594600230A22284600F0ECF8B0458346FF
:104BC8004FF000034FF00A024146284607D100F093
:104BD800E1F880460646089B0133089375E700F024
:104BE800D9F83146804600230A22284600F0D2F838
:104BF8000646F0E7B9F1000FCCBF4F4601274FF04A
:104C08000008039A1744594601222846089300F0E1
:104C18006DFA2146834600F0D9FA0028B2DC02D1A9
:104C2800089BDB07AED43B461F4613F8012D302AFC
:104C3800FAD0F9E6039A9A42A5D131230AF1010A7A
:104C480079E7144BFFF7A8BA269B002B7FF481AABB
:104C5800114BFFF7A1BAB9F1000F03DC229B022B1D
:104C68003FF7CBAE039F21465846FFF79DF9039ABD
:104C780000F1300307F8013BBA1A9145BADD5946ED
:104C880000230A22284600F085F88346EBE700BF98
:104C9800226300085C6200088062000800487047D0
:104CA800B0010020024B0146186800F00FBC00BF9D
:104CB8005C000020034610B5C9B20244934218466E
:104CC80001D1002003E0047801338C42F6D110BDF5
:104CD80070B5466A04460D4676B91020FFF7E2FF24
:104CE8000246606220B96621174B184800F072FC32
:104CF800C0E901660660C660666AF36883B1636AE4
:104D0800DB6853F82500B8B9012101FA05F6721DD0
:104D18002046920000F05EFB60B1C0E901560EE04B
:104D280021220421204600F055FB636AF060DB680D
:104D3800002BE4D1002070BD026843F82520002331
:104D4800C0E90333F7E700BF8D620008336300084A
:104D580070B5466A05460C4676B91020FFF7A2FFE3
:104D68000246686220B98A21084B094800F032FCE3
:104D7800C0E901660660C6603CB16B6A6268DB68C0
:104D880053F82210216043F8224070BD8D6200085C
:104D9800336300082DE9F04107460C461E46002003
:104DA8000D6901F1140CDCF80030013099B202FBF6
:104DB80001611E0C0B0C02FB063389B201EB0341A7
:104DC80085424FEA13464CF8041BECDC0EB3A3688B
:104DD800AB4219DC616838460131FFF779FF80463C
:104DE80028B90246B5210C4B0C4800F0F3FB2269A8
:104DF80004F10C01023292000C30FEF75FFC2146F0
:104E08003846FFF7A5FF444604EB850301355E618C
:104E180025612046BDE8F08122630008336300085D
:104E2800020C12040346CAB90304102013F07F4F82
:104E380004BF1B02083013F0704F04BF1B0104307D
:104E480013F0404F04BF9B000230002B05DB13F02A
:104E5800804F00F1010008BF202070470020E5E7DF
:104E68000368024613F007000BD0D90721D498072E
:104E780049BF5B089B08012013605CBF02201360D8
:104E8800704799B209B910201B0CD9B209B908307A
:104E98001B0A190704BF1B090430990704BF9B08A4
:104EA8000230D90703D45B0800F1010003D0136076
:104EB80070470020704720207047000010B50C464E
:104EC8000121FFF705FF024628B94FF4A071044BF2
:104ED800044800F07FFB01234461036110BD00BF5B
:104EE80022630008336300082DE9F04F91460A69F0
:104EF800D9F810300C469A42BEBF0B464C4699462C
:104F08002769D9F810A0A368616807EB0A06B342BD
:104F180085B0B8BF0131FFF7DBFE30B9024640F279
:104F28005D11434B434800F055FB00F114052B4637
:104F3800002205EB8608434521D304F1140303EB53
:104F4800870709F1140303EB8A0202923A1B153A08
:104F580022F00302043204F115018F4238BF042203
:104F68000192029A03939A420CD8002E03DD58F856
:104F7800043D002B59D0066105B0BDE8F08F43F819
:104F8800042BD8E7B3F800A0BAF1000F23D0A94644
:104F98004FF0000C04F1140E5EF8042BD9F8001041
:104FA8001FFA82FB89B20AFB0B116144D9F800C0D1
:104FB800120C4FEA1C4C0AFB02C202EB114289B2E6
:104FC80041EA024177454FEA124C49F8041BE3D8FD
:104FD800019A45F802C0039A0433B2F80290B9F175
:104FE800000F20D0AE464FF0000A296804F1140CD7
:104FF800BCF800B0BEF8022089B209FB0B2292442B
:1050080041EA0A414EF8041B5CF8042BBEF8001074
:10501800120C09FB0211674501EB1A414FEA114ACC
:10502800E6D8019AA95004359BE7013E9DE700BFE9
:1050380022630008336300082DE9F843154612F08F
:10504800030206460F4607D0254C013A002354F8C0
:105058002220FFF79FFE0746AD103DD0746A7CB949
:105068001020FFF71FFE0246706228B94FF4D7716F
:105078001C4B1D4800F0AEFAC0E901440460C4604E
:10508800D6F82480D8F808404CB940F2712130464F
:10509800FFF714FF00230446C8F8080003604FF028
:1050A8000009EB070AD5394622463046FFF71CFFB0
:1050B800804639463046FFF74BFE47466D100BD009
:1050C800206838B9224621463046FFF70DFF206098
:1050D800C0F800900446E4E73846BDE8F88300BF0E
:1050E800A86400088D620008336300082DE9F047C2
:1050F8000C46074691462369496803EB6218A36882
:105108004FEA621A08F10106B3420BDB3846FFF793
:10511800DFFD054648B9024640F2D911294B2A4815
:1051280000F058FA01315B00EEE7002300F11401AA
:1051380000F110021846534537DB20692AEAEA7A5B
:1051480004F1140319F01F0901EB8A0103EB800035
:105158002FD08A464FF0000CC9F1200E1A6802FAC7
:1051680009F242EA0C024AF8042B53F8042B98423D
:1051780022FA0EFCF2D8031B153B23F00303043379
:1051880004F11502904238BF042341F803C0BCF172
:10519800000F01D008F10206013E384621462E6173
:1051A800FFF7D6FD2846BDE8F08742F8040F013323
:1051B800C1E7043953F8042B984241F8042FF9D871
:1051C800EAE700BF226300083363000803460A6960
:1051D800006930B5801A0DD11433143103EB820401
:1051E80001EB820154F8045D51F8042D954202D078
:1051F80004D3012030BDA342F4D3FBE74FF0FF30C6
:10520800F8E700002DE9F84F0D46074611462846F5
:105218001446FFF7DBFF061E11D131463846FFF76B
:1052280057FD024628B940F232213A4B3A4800F07D
:10523800D1F90123C0E904361046BDE8F88FA4BFB0
:1052480023462C4638466168A6BF1D46002601261F
:10525800FFF73EFD024618B94FF410712D4BE5E7F4
:1052680002F11408C2464FF0000C2769C6602E6987
:1052780004F1140005F1140900EB870E09EB86060A
:10528800103454F804BF59F8043B1FFA8BF18C44CE
:1052980099B21B0CACEB0101C3EB1B4303EB21439D
:1052A80089B24FEA234C4E4541EA03434AF8043B8E
:1052B800E7D8731B153B23F0030315350433AE42BF
:1052C80038BF0423184443441E46054675450ED38B
:1052D8000EF10301091A21F003010338864538BF8E
:1052E8000021194451F8043D8BB11761A4E755F822
:1052F800048B1FFA88F161440C1404EB184489B23A
:1053080041EA04414FEA244C46F8041BDEE7013F1A
:10531800E8E700BF22630008336300082DE9F34182
:105328000121DDE9087690461D46FFF7D1FC0446C9
:1053380030B9024640F20A31244B254800F04AF9B8
:10534800C5F31303C5F30A552DBB0193B8F1000348
:1053580026D068460093FFF783FD0099F0B1019AC3
:10536800C0F1200302FA03F30B43C24063610192C8
:10537800019B002B14BF02210121A3612161C5B14A
:10538800A5F233450544C0F135003D603060204644
:1053980002B0BDE8F08143F48013D6E76161E7E726
:1053A80001A8FFF75DFD0121019B216163612030A8
:1053B800E5E704EB8103A0F2324038601869FFF793
:1053C8002FFDC0EB41113160E1E700BF2263000807
:1053D8003363000870B5A1FB025434B9294600F0C4
:1053E80075F8064628B9304670BD0C2200260260C2
:1053F800F9E72A462146FEF76FF9F4E738B505467E
:10540800002940D051F8043C0C1F002BB8BFE41809
:1054180000F022F91C4A136833B963601460284607
:10542800BDE8384000F01EB9A34208D92068211809
:105438008B4201BF19685B6809182160EDE71A46BD
:105448005B680BB1A342FAD911685018A0420BD17E
:1054580020680144501883421160E0D118685B68E5
:10546800014411605360DAE702D90C232B60D6E7B8
:10547800206821188B4201BF19685B6809182160F0
:1054880063605460CBE738BD001E002070B50E4E37
:105498000C463168054611B900F08CF83060214699
:1054A800284600F087F8431C0AD0C41C24F00304E3
:1054B800A04207D0211A284600F07CF8013001D11B
:1054C8004FF0FF34204670BD041E00202DE9F04146
:1054D800CD1C25F0030508350C2D38BF0C25002DF3
:1054E800074601DBA94205D90C2300263B6030465C
:1054F800BDE8F0812E4E00F0AFF833681C4634BB8F
:1055080029463846FFF7C2FF431C04464DD134688C
:105518002646002E40D123683146384604EB03085E
:1055280000F048F880453AD1216803356D1A25F016
:10553800030508350C2D38BF0C2538462946FFF7DA
:10554800A5FF01302BD023682B4423600EE022688E
:10555800521B1ED40B2A16D96119A342256018BF05
:105568005960636808BF316062514B60384604F186
:105578000B0600F077F826F00706231DF21AB6D0BE
:105588009B1BA350B3E76268A3420CBF32605A600A
:10559800ECE723466468B2E734467668B9E70C233B
:1055A80038463B6000F05EF8A1E72560DEE700BF03
:1055B800001E002038B50023054D044608462B6020
:1055C80000F0C8FD431C02D12B6803B1236038BD2D
:1055D800081E00201FB514461A46094B05461B68CD
:1055E800D8684CB1074BCDE9013400912B460649E8
:1055F80000F00EF800F062FA044B1C46F3E700BF17
:105608005C000020B4640008C1640008EF6400086E
:105618000EB403B5014603AB054853F8042B0068E4
:10562800019300F04DF802B05DF804EB03B0704749
:105638005C00002082B001B901A942B14BB11378D6
:105648000B601278101E18BF012002B07047104678
:10565800FBE76FF00100F8E7014800F0EBBB00BF83
:105668000C1E0020014800F0E6BB00BF0C1E002005
:10567800936810B4013B002B936007DA9469A34246
:1056880001DB0A2902D110BC00F04AB91368581C82
:1056980010601970084610BC7047F8B506460F46EA
:1056A8001446D518AC4201D1002007E03A463046EE
:1056B80014F8011BFFF7DCFF431CF3D1F8BD000011
:1056C8002DE9F04F0D461446984606469DB018B190
:1056D80083690BB900F010FB894B9D421BD175689B
:1056E8006B6ED90705D4AB899A0502D4A86D00F072
:1056F800A1FBAB891B0701D52B69EBB929463046BD
:1057080000F06EF9C0B16B6EDC070ED54FF0FF30BC
:105718001DB0BDE8F08F7B4B9D4201D1B568DFE736
:10572800794B9D4208BFF568DAE7AB899805EDD457
:10573800A86D00F080FBE9E70023099320238DF88A
:10574800293030234FF00109CDF80C80DFF8BC81F7
:105758008DF82A3023469A4613F8012B0AB1252AD8
:10576800F9D1BAEB040B0BD05B46224629463046EA
:10577800FFF793FF013000F0AA80099A5A44099272
:105788009AF80030002B00F0A28000234FF0FF327F
:10579800CDE905230AF1010A049307938DF85330E4
:1057A8001A935446052214F8011B5848FFF782FA49
:1057B800049AD8B9D10644BF20238DF85330130773
:1057C80044BF2B238DF853309AF800302A2B15D07C
:1057D800544600204FF00A0C079A214611F8013B65
:1057E800303B092B4ED9B0B1079214E0A0EB080367
:1057F80009FA03F31343A2460493D2E7039B191D46
:105808001B680391002BBBBF5B4242F00202079367
:105818000793B8BF049223782E2B0CD163782A2BD8
:1058280035D1039B02341A1D1B680392002BB8BFA5
:105838004FF0FF330593DFF8D8A0032250462178B4
:10584800FFF738FA40B14023A0EB0A0003FA00F052
:10585800049B01340343049314F8011B06222D48CA
:105868008DF82810FFF726FA00283FD02A4B1BBBDB
:10587800039B073323F0070308330393099B3B4437
:10588800099367E70C4601200CFB0232A5E70023C9
:105898004FF00A0C194601340593204610F8012BE5
:1058A800303A092A03D9002BC5D00591C3E704462D
:1058B80001230CFB0121F0E703AB00932A46304695
:1058C800164B04A9FDF7AEFF0746781CD6D16B6EC0
:1058D800D90705D4AB899A0502D4A86D00F0ABFAB4
:1058E800AB895B063FF512AF099811E703AB00934C
:1058F8002A463046094B04A9FEF730FAE4E700BF10
:105908002C6600084C6600080C660008FA6400085B
:1059180000650008046500082D380008A356000833
:10592800F8B50E461446054618B183690BB900F060
:10593800E3F9214B9C422BD16C68A369A360A3892E
:105948001A072FD523696BB323692068F6B2C01AEA
:1059580063693746834204DC2146284600F038F95B
:1059680030BBA3680130013BA36023685A1C226046
:105978001E706369834204D0A389DB0706D50A2E0B
:1059880004D12146284600F023F988B93846F8BDE5
:105998000A4B9C4201D1AC68CFE7094B9C4208BF37
:1059A800EC68CAE72146284600F01AF80028CBD050
:1059B8004FF0FF37EAE700BF2C6600084C66000886
:1059C8000C6600080346084641B1FF2A04D98A221A
:1059D8004FF0FF301A60704701200A7070470000CE
:1059E800324B70B51D6806460C4625B1AB6913B934
:1059F800284600F081F92E4B9C420FD16C68A38990
:105A0800B4F90C2019072CD4DD0611D4092333600E
:105A180042F040034FF0FF30A3813EE0254B9C420B
:105A280001D1AC68EBE7244B9C4208BFEC68E6E781
:105A3800580712D5616B41B104F14403994202D071
:105A48003046FFF7DBFC00236363A38923F02403BC
:105A5800A3810023636023692360A38943F00803BB
:105A6800A38123694BB9A38903F42073B3F5007F9D
:105A780003D02146304600F005FAA089B4F90C207D
:105A880010F001030AD00023A36063695B42A3619D
:105A9800236943B910F08000BAD170BD810758BF9F
:105AA8006369A360F4E70020F7E700BF5C0000200B
:105AB8002C6600084C6600080C660008062008B52D
:105AC80000F048FA012000F05BFB00008A89F8B575
